:10000000984E002081D00000776001006DD0000084
:100010006DD000006DD000006DD000006DD00000EC
:1000200000000000000000000000000051D10000AE
:100030006DD000000000000001D300006DD0000072
:100040007DD300007DD300007DD300007DD3000070
:100050007DD300007DD300007DD300007DD3000060
:100060007DD300007DD300007DD300007DD3000050
:100070007DD300007DD300007DD300007DD3000040
:100250007DD30000F58901007DD300007DD300002F
:100260007DD300007DD30000DF8901007DD3000035
:100270007DD300007DD300007DD300007DD300003E
:100280007DD300007DD300007DD300007DD300002E
:100290007DD300007DD300007DD300007DD300001E
:1002A0007DD300007DD300007DD300007DD300000E
:1002B0007DD300007DD300007DD300007DD30000FE
:1002C0007DD300007DD300007DD300007DD30000EE
:1002D0007DD300007DD300007DD300007DD30000DE
:1002E0007DD300007DD300007DD300007DD30000CE
:1002F0007DD300007DD300007DD300007DD30000BE
:100300007DD300007DD300007DD300007DD30000AD
:100310007DD300007DD300007DD300007DD300009D
:100320007DD300007DD300007DD300007DD300008D
:100330007DD300007DD300007DD300007DD300007D
:100340007DD300007DD300007DD300007DD300006D
:100350007DD300007DD300007DD300007DD300005D
:100360007DD300007DD300007DD300007DD300004D
:100370007DD300007DD300007DD300007DD300003D
:100380007DD300007DD300007DD300007DD300002D
:100390007DD300007DD300007DD300007DD300001D
:1003A0007DD300007DD300007DD300007DD300000D
:1003B0007DD300007DD300007DD300007DD30000FD
:1003C0007DD300007DD300007DD300007DD30000ED
:1003D0007DD300000B8A01007DD300007DD3000097
:1003E0007DD300007DD300007DD300007DD30000CD
:1003F0007DD300007DD300007DD300007DD30000BD
:100400007DD300007DD300007DD300007DD30000AC
:100410007DD300007DD300007DD300007DD300009C
:100420007DD300007DD300007DD300007DD300008C
:100430007DD300007DD300007DD300007DD300007C
:100440007DD300007DD300007DD300007DD300006C
:100450007DD300007DD300007DD300007DD300005C
:100460007DD300007DD300007DD300007DD300004C
:100470007DD300007DD300007DD300007DD300003C
:100480007DD300007DD300007DD300007DD300002C
:100490007DD300007DD300007DD300007DD300001C
:1004A0007DD300007DD300007DD300007DD300000C
:1004B0007DD300007DD300007DD300007DD30000FC
:1004C0007DD300007DD30000064A074B02604FF445
:1004D0009C725B7A82800822C371FF23827103724F
:1004E000704700BFE79F0000C00A0020F8B5C41D98
:1004F0000028054624F007040CBF0020204600F029
:100500003BFA071E02DA6FF00B00F8BD254EB188EA
:1005100070880331F3790330B27989B280B208F080
:10052000C7FC0028EFDB3C4473783178002D04F1E0
:100530000304194424F0030400FB01F10CBF002064
:10054000204600F09DFB23180DB9002BDBDB717AF0
:10055000184679B10333002D728923F003040CBFD0
:100560000020204600F0E2FB0028CCDB20440DB93F
:100570000028C8DB317A91B1737A83B1C41D002D94
:1005800024F007040CBF0020204601F093FE002851
:10059000B9DB0DB10020B8E72018B6D5B3E7002DC0
:1005A000F8D1B2E7C00A00201FB572B6194BDC685B
:1005B000ECB9BFF34F8F1849184BCA6802F4E062D8
:1005C0001343CB60BFF34F8F00BFFDE7B2FBF6F2E2
:1005D0002B465D1C002AF9D1DBB203F110056D44F6
:1005E00005F80C2C0A2233B901A8A047E1E702461E
:1005F00000230A26EDE7013BDBB203F110050DEB0A
:100600000506B0FBF2F502FB1500303006F80C0CC5
:100610002846E8E7C00A002000ED00E00400FA05E3
:100620000A4B07B5DA886846ADF800209A885B88DF
:10063000ADF80420ADF8023000F0C2FF18B1FA2185
:100640009C20FFF7B1FF03B05DF804FBC00A002057
:1006500010B5044628B306F059FF10B94FF0FF302B
:1006600010BD05F039FBB0F5FA7FF7D80E4B00222C
:100670001A744FF48072DC601A801B225A809A80B0
:1006800040F20322DA804FF484721A811F225A81C9
:10069000EFF3108472B600F0A5FB04B962B6002037
:1006A000DEE76FF01500DBE7C00A002010B5002878
:1006B00040D1234C237C032B39D059B1002A3CD0A4
:1006C0000239052936D8DFE801F0031227352A2D33
:1006D000137863700020FFF709FF0028B7BF0123DC
:1006E00002236FF00B002374A8BF237410BD13798D
:1006F0001BB353790BB31188FB291ED853881B3BBE
:100700009BB2E02B19D81A2917D913689288C4F81C
:1007100002300C4B9A80DDE713786372DAE71388B6
:100720006381D7E71388FF2B07D82372D2E74FF0F6
:10073000FF30DBE76FF02C00D8E76FF01500D5E74E
:10074000C00A0020C20A0020F8B50D46064620B3B4
:1007500019B311F0070420D1114F3B7C012B02D1BA
:100760006FF00B00F8BD032B02D14FF0FF30F9E71B
:1007700000F070FB0028F8D02846FFF7B7FE0028ED
:10078000EEDB09F0C6FE3046214600F049FFFFF7D8
:1007900047FF032320463B74E4E76FF01500E1E7D1
:1007A000C00A002010B5064C237C032B03D100F0B7
:1007B0004DFF01F06DFA08F07DFC0020207410BDA3
:1007C000C00A002008B500F011FF03490120BDE870
:1007D000084000F0C9B800BFC9040000074B4FF043
:1007E000FF3141F6FF72C3E9001205490022C1E959
:1007F00000221F21C3E90212704700BF60000020E1
:10080000D40A00203F280CD801380B4BC0F3421209
:1008100000F01F0053F8223023FA00F000F001002E
:100820007047FF2806D04038044BC0F3421200F056
:100830001F00EFE70120704760000020D40A00206D
:10084000074B0146006849681A4603C240F48C22EF
:1008500000201A6041F0107242F4FF625A60704743
:10086000600000200246034B0068516803C300206B
:10087000704700BF680000200138064BC0F34212E9
:1008800000F01F0003EB82039B6823FA00F000F0E6
:1008900001007047600000200A8870B595B2C67CE0
:1008A000C2F30E020488023602F118033444C35A1C
:1008B000A4B233442344013BB3FBF4F303FB04220F
:1008C000438892B29342044B8BBF2B40AB431343FC
:1008D0009BB20B8070BD00BF0080FFFF4A1E062A3E
:1008E00008B50346084604D84FF4D1711520FFF728
:1008F0005BFE094A914202D940F2A311F6E711B911
:1009000003B1196008BD2BB11B680022C3E90121A6
:100910001A1D1A600430F5E7FAFFFF7F10B5114B7E
:1009200000EB41041A786389B3FBF2F303FB022363
:10093000013A1A44B2F5706F0279807828BF00231B
:100940001A440B18B2FBF0F100FB11215B1AB3FB48
:10095000F0F100FB113313446FEA43436FEA534352
:10096000638110BDDC0A0020024B03EB8003596059
:10097000704700BFDC0A00202DE9F04F10F0070A95
:1009800085B0054604D040F26F111720FFF70CFE2A
:10099000524F044607F10C06B146B04657F8043BE7
:1009A0008DF80BA03BB101A898479DF80A30082BA1
:1009B00001D9F521E9E79DF80B1041BB05B1316084
:1009C0004F4506F10406E9D1002D6FD00022DFF873
:1009D00010910227964689F8002058F827A0013F79
:1009E000BAF1000F55D09AF804609AF802C0FF2EB1
:1009F00060D039460023481C38D19C44BCF1FF0F1D
:100A00003FD90AB189F800E04FF49A71BDE79DF82B
:100A10000AC04B1D60465A0004EB4303022838BF4E
:100A20000220441E40422344BDF808406444CCF1F7
:100A3000000C0340013C04EA0C04B4F5803F02D3EF
:100A400040F20511A1E775B19A1A01203260917048
:100A50001480D0709DF80C00107101984FEA104C72
:100A60001081A2F806C004FB0134A9E758F8210060
:100A700028B190F804B0B34504BF80781B18013941
:100A8000B9E7DBB2E6458AF804303CBF5FFA8CFE7A
:100A900001227B1CA1D10AB189F800E0022640F6B0
:100AA000FF6A58F82670B7B9013EFAD2601B05B04C
:100AB000BDE8F08F0023E5E707EB410309F10109E9
:100AC0003846A3F80AA0FFF729FF5FFA89F1BB783F
:100AD0008B42F1D8E8E74FF00009F6E7E00A002082
:100AE000DC0A002038B54FF6FF7302460380184B2E
:100AF00003EB81031869A8B184780379B3FBF4F19F
:100B000004FB1133DBB2194600EB4105B5F90A507D
:100B1000002D0EDB0131B1FBF4F504FB1511C9B258
:100B20008B42F1D1002038BD6381BDE8384008F028
:100B30009BB900EB41046389C3F30E031380C278B1
:100B4000002AF1D14FF4E5711720FFF72DFD00BF0A
:100B5000DC0A00201C4B03EB810370B51C690546C1
:100B600044B3030404D54FF4EC711720FFF71CFDC8
:100B70000146204608F05BF9FF28014604D02046D4
:100B8000BDE8704008F070B9A078B5FBF0F300FB49
:100B90001353DBB219460A1D04EB4206B6F9026094
:100BA000002E09DB0131B1FBF0F200FB1211C9B2DA
:100BB0008B42F0D1002070BD8B4201D00023E37046
:100BC00004EB42025580DAE7DC0A0020094B03EB14
:100BD0008103014610B51C69204608F028F9FF285A
:100BE000014604D02046BDE8104008F03DB9002081
:100BF00010BD00BFDC0A0020F8B5104B074603EB20
:100C0000810301461C69204608F011F9FF280546BA
:100C100011D0E288238953EA024606D001462046D5
:100C200008F022F901463846B04720462946FFF72A
:100C300075FE0020F8BD0520FCE700BFDC0A00209F
:100C400038B50E4B0446827903EB8203186908B964
:100C5000052038BD8278E1799142F9D24B1CE371CD
:100C600000EB41035D89B3F90A30002BF3DBA5806B
:100C700008F0FAF820600020EBE700BFDC0A002053
:100C800070B5044610F003000E4603D04E21182024
:100C9000FFF78AFCFFF722FE054624B103483146E0
:100CA0000460FFF71BFE284670BD00BFF80A002055
:100CB0002DE9F14FDFF870B01E4607460D46DBF810
:100CC000003090469DF828A09DF82C901BB960211B
:100CD0001820FFF769FC52460921404608F015F834
:100CE0004A4684B20921304608F00FF881B2DBF899
:100CF0000000214408F076F8386018B9286001B087
:100D0000BDE8F08F04445346414609222C60386800
:100D100007F0DAFF4B4609223146286801B0BDE8EA
:100D2000F04F07F0D1BF00BFF80A00201F2AF8B526
:100D3000044624D89200134D033250B1830703D0E8
:100D400068210920FFF730FC22F003032970686056
:100D50002B8122F0030228230127120403FB01F058
:100D60006B680025120CEEB2B14200D8F8BD14B188
:100D700026181F705E60104401352833F3E74FF0EA
:100D8000FF30F3E7FC0A0020154A002170B55368D4
:100D90001578C8B2854203D8BA210920FFF704FCB0
:100DA0001C461846013114F8286B0EB92346F0E7AB
:100DB0000021997001241289996103F126055C7064
:100DC0009208D96103F11E04596824F8022FAC423D
:100DD00043F8041F1144F8D100234361037070BD30
:100DE000FC0A0020124B01224FF0FF3000215A6014
:100DF000C3F80803C3F80015C3F804255A6040F689
:100E0000FE72C3F808034FF48060C3F8001503F5C1
:100E100060330849C3F80825C1F88800BFF34F8F35
:100E2000BFF36F8FC1F88801C3F80825704700BF72
:100E300000A0045000E100E002680020014B1A60AD
:100E4000704700BF080B0020014B1B68184700BF0C
:100E5000080B0020024B1868003818BF01207047AB
:100E6000080B00200A4606488F2302F8033BC3689C
:100E7000C1F803300369536043699360704700BF52
:100E80000C0B0020014B00215B6A18470C0B002063
:100E900010B5154C03F032FF04F07EF9208DFFF7FA
:100EA000F1FF237E63B12246104904F1190052F884
:100EB0000C3BE36063685360A368936008F08AFCAE
:100EC000218DE06A01F022FAE36AB3F8AA0001F08A
:100ED000A7F9636B94F8301094F831009847002319
:100EE00084F8383010BD00BF0C0B0020650E0000E8
:100EF00070B5184C0546E36CE66AE3634FF4817302
:100F000094F85000A4F84030337D96F8151100EBAA
:100F100083002DB9FF2803D196F814318B4201D0FC
:100F200003F05AFC337D73B1606D03F05BFE616DBD
:100F3000E06B04F0B7F815B9284603F0A1FE0223D0
:100F400084F8383070BDE06B03F04CFE04F024F9F7
:100F5000F1E700BF0C0B00207FB50022012300F158
:100F600080010392CDE90423074A92F850200292AF
:100F700000F19002CDE90032D0E91E23022004F0F6
:100F80002DF807B05DF804FB0C0B0020F8B5584CA9
:100F9000054694F8386006F0FF0016B909B102B1B1
:100FA00023B94FF420712720FFF7FEFA63639DF801
:100FB0001830616284F88530626784F8300084F804
:100FC000860084F8310084F888006084208584F8E5
:100FD000780084F8790084F87000A0652066A4F891
:100FE0006400E0636064A4F84800E56203F020FC5C
:100FF00004F0D2F895F91C0103F074FCD5F8D06028
:10100000D5F8C80003F074FC304603F0DDFD95F818
:10101000240003F077FC08F0BFFD95F8152100F1DE
:101020007101012003F0ECFC324B186803F0D2FD93
:10103000D5F8BC30C4F88030D5F8C030E366AB7B5F
:10104000233B072B52D9EB7B233B072B4ED9B5F81B
:10105000E630B5F8EC0095F81411984228BF184610
:1010600008F0EDF995F8E830834228BF034698B2BE
:1010700095F8E430984200D3C3B295F8151105F104
:10108000DC0084F8873008F0D2FB2F7D95F815112D
:10109000B5F8F06008F0D3F90FB9043080B2864299
:1010A00028BF0646F3B284F8843084F850302B7D94
:1010B00013B12846FFF750FF0120FFF719FFE36A3D
:1010C000D3F8C00103F0AAFD002323606360A3608E
:1010D000EB886380B5F8AA30238095F8243023711B
:1010E000D5F818310BB101221A60F8BD1B23C4E7F3
:1010F0000C0B0020DC130020014B93F88800704794
:101100000C0B0020024B93F82900C0F3C00070477D
:101110000C0B0020014B93F8860070470C0B00204D
:1011200010B501210020FFF751FD044670B90121DF
:10113000FFF710FD044620B940F225313920FFF7B2
:1011400033FA034B93F9181008F01FFF204610BD27
:10115000980B002008B508F004F900F037FC00F007
:1011600099FA08F00FFB01F0B7F803F031F800220C
:10117000074B4FF01B1107481A60074BC3E90101E9
:101180004FF4A4711A801A82D960DA7408BD00BFC6
:10119000E013002003021B00980B0020034B41F6D4
:1011A0004C525A611B229A74FFF7D4BF980B00204F
:1011B000F7B5274D00F1A80704466B69C0F8DC308D
:1011C000244BC0F8C430384608F0FCFD064600F059
:1011D00051FA8306A97C53BF1B23EB882A891A4640
:1011E000A4F806311C4BA4F808211B6884F8E4100D
:1011F000A4F8E66023B194F91C11B4F8AA0098474A
:101200001649384608F098F80123EA8804F1BC0032
:101210006979A4F8DA3003322B89019192B22979E5
:10122000033300919BB204F1C001FFF741FDD4F8F4
:10123000BC3023B940F2E2413920FFF7B5F9D4F8C8
:10124000C03013B940F2E341F6E703B0F0BD00BF90
:10125000980B002000093D00E4130020A60B00209D
:10126000024B1B6803B118470C207047E0130020A5
:10127000034BDA8802801B7983700020704700BF1F
:10128000980B0020F7B5077805460C46EF2F0FD8CE
:1012900090F901204378002A0ADB8278900707D171
:1012A00013F010001DD1990603F0030202D51AB104
:1012B000122442E0032AFBD01E07F9D42979EA78E8
:1012C000EE7942EA0122697942EA0142A97941EACA
:1012D00006212E7A41EA06418A42E9D81F2A0FD810
:1012E000E6E713F0600FE3D103F00702052A05D00B
:1012F00003F00F010D22CA40D107D9D51A07DDD559
:101300006A7A013A062AD3D8AA7A032AD0D813F0E7
:10131000040102D1023A012A03D8EA7A012AC7D885
:1013200011B9AA7C032AC3D82A7D48B1012ABFD1AA
:101330002A7E012ABCD830B91124204603B0F0BD62
:10134000022AF5D1B4E7DB0712D46B782A7D03F0CB
:101350001803082B11D1022AEED101213846FFF7DC
:1013600035FC064678B108F0C4FDB8B10C24E4E7BA
:1013700000F050F90028E8D1DEE7022AEDD02B7FFB
:10138000002BEAD0D8E701213846FFF7E3FB0646F9
:1013900040B3154B93F9181008F0F7FD304608F0EC
:1013A000E4FE29462070E874304608F034FEEB7EF7
:1013B0000446002BC1D00028BFD10246B16A68465E
:1013C00007F08DFD2246B06A012107F0D3FDB16A16
:1013D0006846042207F083FD22462146B06A07F0E2
:1013E000C9FDAAE70724A8E7980B002030B50279C9
:1013F0008BB00346042A4FD84088B0F5804F4BD8B5
:10140000264900248D5C1144ADF800404A798DF8DE
:10141000084042F010028DF8244042EA45028D7ADD
:10142000C97B42EA850242EAC102694602F01F0214
:101430008DF80020BDF80020ADF809201A888DF83D
:101440000E00000A8DF80B20120A8DF80D408DF861
:101450000C208DF80F008DF810405A7BD3F8070050
:101460008DF811205A79059002A88DF812209A79EA
:101470008DF81320B3F80B209B7BADF818208DF866
:101480001A307F238DF81B304FF00113CDE907345C
:10149000FFF7F8FE0BB030BD1220FBE7D4AF010020
:1014A00073B50646FFF73CFE044608F069FE337844
:1014B0000546012B5FD1204608F09AFD00287AD01E
:1014C000204608F05DFE18B115B9122002B070BDBB
:1014D000204608F00EFD08B10C20F7E7204608F082
:1014E00045FD06460028F7D1204601F09DFE002864
:1014F000EBD0ED0142F2107331462046ADB25D43B0
:1015000008F02AFE204608F033FE014658B92A4664
:10151000204601F003FA08B90020D7E741F69821E8
:101520003920FFF741F831460DF10600FFF7DAFAEE
:10153000064608B90D20C9E7BDF8061007F0A3FF5D
:101540003146204608F020FE3046FFF731FE2A469D
:101550003146204601F0E2F9024610B141F6B421CD
:10156000DEE7164BDB69002BD6D006F5917106F14C
:10157000A8009847D0E7002BA7D1204608F038FDF7
:10158000C8B1204608F0B5FC0028C5D0204608F0B8
:10159000E9FB0546204608F0E8FB014600289BD100
:1015A000002DB9D0B5F8AA00FFF726FB0028B3D06C
:1015B00041F6D621B4E7422088E700BF980B00200F
:1015C0000278034672B1427862B142881A2A09D978
:1015D00082881A2A06D90068034A506000209B8836
:1015E0001381704712207047980B002010B5064CED
:1015F0000649201D07F06CFE04F108000449BDE80F
:10160000104007F065BE00BFB80B0020A800002006
:10161000B0000020014B1878704700BFB80B0020C5
:1016200010B5064C00F020FB606807F049FEFFF79C
:10163000B5FD00F073FC0123237410BDB80B00202E
:10164000014B187C704700BFB80B002010B5064C4A
:10165000A06807F035FEE06807F032FEFFF77AFD7C
:101660000023237410BD00BFB80B00200048704752
:10167000C90B0020014BD3E9000170477000002026
:10168000034B1868C0F30020400040F00100704791
:101690007000002008B504F01FFB0023074A32F851
:1016A0002310814205D302EB83029378044A13701E
:1016B00008BD01330C2BF2D10023F7E7E8AF01009E
:1016C000CD0D0020006808B5B0F8AA3080F864118C
:1016D000A0F8653190F81431012B06D0022B04D00C
:1016E0004FF43F710620FEF75FFF80F8673190F8F6
:1016F0001531012B01D0022BF2D180F8683100F2B4
:101700005B100249BDE8084008F064B8239300006C
:10171000044B93F82220012A1ABF03600120002005
:10172000704700BFCE0D0020054B024693F82210F3
:1017300001291BBF01209A84002083F822007047F2
:10174000CE0D0020044B002293F822009A8410B1A1
:10175000012083F822207047CE0D002050B90A4A9C
:101760000120134603F8010B0868C2F801008A88BB
:101770009A807047012805D1034B0A68D8719A6096
:101780008A889A81704700BFF40D002050B90B4B36
:10179000187888B1D3F80120B3F805300A60012029
:1017A0008B807047012806D1044BD87920B19A6804
:1017B0009B890A60F3E70020704700BFF40D00200A
:1017C00010B9044B18787047012806BF014BD8792F
:1017D00000207047F40D0020F7B58A8800238DF8AB
:1017E0000600ADF8042008680B4A8DF80730014662
:1017F000147802F5A872019DD8B2844201D808205D
:1018000007E052F8087F01335668AE4208BF8F42A6
:10181000F2D103B0F0BD00BF080E0020084B014616
:10182000002230B55C7803F20113D0B2844201D8B3
:10183000082004E013F8015F01328D42F5D130BD7C
:10184000080E0020F0B5254D89B095F8984105F2B5
:1018500099116846224605F0C3FF2146684607F005
:101860009FFD0446B8B300EB400102A8C9B2FFF7E0
:10187000EBFA631E95F8A1610124DBB295F898118B
:1018800005E0721CB2FBF1F001FB1022D6B206F1AA
:1018900020020DEB020010F8202C002AF1D103EBFE
:1018A000430100F8204C06EB460220312A446944EB
:1018B00011F8187C82F8A27111F8177C11F8161C27
:1018C00082F8A37182F8A411013BAA19DBB282F855
:1018D0009941FF2BD2D109B0F0BD00BF080E002006
:1018E00070B5064688B00C46002A4ED0294A92F8B8
:1018F000A131D01890F8991119B9FF212820FEF7CD
:1019000053FE03EB43010133114491F8A251E570FA
:1019100091F8A35191F8A41125716171002180F80B
:10192000991192F89811B3FBF1F001FB103382F892
:10193000A13192F8C23123B9174902F5DD7007F0E1
:1019400046FF65790D220021684605F03F0545F008
:101950004005657109F08DFAE37804AA69468DF8AF
:101960000F30304623798DF80D508DF80E3004235A
:1019700009F0E9F99DF81F3023709DF81E3063705F
:101980009DF81D30A37008B070BD03216018FFF7EB
:101990005BFAD6E7080E002045180000044B5A7881
:1019A000824286BF1B1893F84A010020704700BF8F
:1019B000080E0020044B5A78824286BF1B1893F809
:1019C00042010020704700BF080E0020064B002295
:1019D0004FF461711A8083F8C32183F8C421A3F8FE
:1019E000C61183F8C2217047080E0020014BB3F8DE
:1019F000C6017047080E00200A4B30B55C7884425F
:101A00000ED9184490F802012B3003EBC004A579DD
:101A10000D7053F8300010600120A388938030BD12
:101A20000020FCE7080E00200246074810B590F899
:101A3000C34124B1417821B1023002F0EBFB2046D2
:101A400010BD0C46FBE700BF080E00202DE9F74F44
:101A50002F4C9A46804689466378834256D923188C
:101A600093F8425185F00105F9B193F84A31E3B991
:101A700045F002070135BAF1000F18D1FA070AD56F
:101A8000062104EB0810524601FB0841823001F5A3
:101A90008571FFF725FFBB0734D504EB08105246CC
:101AA00049460230FFF71CFF2CE02F46E3E794F88D
:101AB000A1614FF0010B002DE0D0A31993F899110B
:101AC000019399B90092DAB100F0F8F9019B06EBA5
:101AD0004601009A4FEA102C83F899B1214481F80D
:101AE000A201000C81F8A3C181F8A401013694F889
:101AF0009831013DB6FBF3F103FB1166F6B2DAE76C
:101B000047F00407384603B0BDE8F08F0027F9E737
:101B1000080E0020074B5A78824209D91A1892F809
:101B200042212AB9062202FB003000F58570704779
:101B300000207047080E0020064B5A78824281BF71
:101B40001B1893F83A01B0FA80F0400998BF0020C2
:101B5000704700BF080E00200B2808B504D940F2DA
:101B600029112920FEF720FD014B33F8100008BD94
:101B700018B00100036830B50024D3F8C40042F265
:101B80001075A3F84040B3F844404443B4FBF1F46B
:101B9000A3F844404C1E05FB0242B2FBF1F2A3F84D
:101BA0004220094AB2FBF1F20132A3F848209A8F91
:101BB00005FB02445A6B5043B4FBF1F4B0FBF1F067
:101BC0009C63586330BD00BF005A6202034608465A
:101BD00071B13F2B0BD8074AD35C03F07F029142CF
:101BE00005D08CBF0120002000EAD31070470120EF
:101BF000704700BF30B00100FF230B7002234B7011
:101C000083238B70014B1B78CB707047D40F00205F
:101C100038B5134C10220021201D09F02AF90125A6
:101C2000257404F108031022002104F11400C4E912
:101C3000013309F01EF984F8205004F11803094A11
:101C4000C4E9053300236362A36284F82C30C4F82E
:101C50002D30C4F8313084F835301360A36338BDBB
:101C6000D40F0020E813002010B5084C2378FF2B78
:101C700004D040F299111020FEF796FC05F01CFDEF
:101C80002070BDE81040FFF7C3BF00BF7D000020FB
:101C900010B5034C207805F029FDFF23237010BDFB
:101CA0007D000020014B187805F030BD7D0000203C
:101CB0002DE9F341DFF86881054608F11407D8F8EB
:101CC0000830D8F81840227A012A22D1D8F83820D2
:101CD00052B1137A1BB9BF211020FEF765FCD8F86A
:101CE0003840C4B9002083E01A7A012AFAD01C4691
:101CF0004C4AEFF3108172B650680068506001B929
:101D000062B6A34208BFC8F83840237A1BB9EE2157
:101D1000E2E73A46EDE7267AF6B205232372731E10
:101D20000B2B6ED8DFE803F06A062235676D3E6D37
:101D30006D6D6D5B636813B94FF40371CCE720469A
:101D4000294698470420EFF3108272B6237A052BB8
:101D5000D9B24FF0000359D12372D8F83810A142FC
:101D600001D1C8F83830B2BB62B634E0636813B949
:101D700040F21521B0E72946204698470346ADF8C2
:101D80000400C0B2C3F30723012B2FD0022BDAD1FA
:101D90001AE0636813B940F21D219DE72046984779
:101DA0000020D0E763680BB9FE2195E786222A70F0
:101DB00001225988AA706A7100225869A5F8031097
:101DC000AA7106F0FCFF0420D8F83830A34202D1F3
:101DD0000023C8F8383000283FF471AF08E0124BF8
:101DE000294620461B689847034668B9267298B171
:101DF00002B0BDE8F0814FF415716DE740F2572154
:101E00006AE740F25A2167E70220DDE711B940F2A4
:101E10007B2161E71846A6E7002B7FF450AF61E70E
:101E2000D40F0020D80F0020EC130020134610B56B
:101E3000027A22B140F202311020FEF7B5FB0A46C9
:101E400001460248BDE8104007F09EBCD80F0020B4
:101E50000346064890F83C203AB190F8352022B964
:101E6000034900F82D3B07F0ACBC7047D40F0020AD
:101E7000F91B00000A4610B5037A23B140F20A317B
:101E80001020FEF791FB014607230248BDE81040F1
:101E900007F07ABCE80F00201346027A0AB10372F9
:101EA00070470A460146014807F06EBCD80F002073
:101EB000014907F08FBC00BFDB970000094AD2E957
:101EC0000003434083EAB01181EA43214FEAF34320
:101ED00011605360044B58434FEAF06000EB800000
:101EE000704700BF14100020BB79379E094AD2E921
:101EF0000003434083EAB01181EA43214FEAF343F0
:101F000011605360044B58434FEAF06000EB8000CF
:101F1000704700BF80000020BB79379E10B50A4C87
:101F200008210948FEF790FFD4E900321343F7D0A7
:101F3000064CFFF7DBFF2060FFF7D8FF23686060E7
:101F40001843F6D010BD00BF800000201410002000
:101F500037B5044601A80D46FFF7DAFB20B94FF468
:101F6000AA615120FEF720FB00212222019808F0EF
:101F700080FF019B194601F8035F023D232D00F20B
:101F80008980DFE805F02587128A8A25872B878AD2
:101F9000313D418787458A8A4E4E656587878787A9
:101FA000878787878787876C778021680D20D1F89E
:101FB000CE215A60D1F8D2219A602268D2F89420BA
:101FC000DA60FFF7B1FB002869D140F25751C8E74A
:101FD000226892F8A02002201A71F2E7204600F051
:101FE000E5F80028EDD13DE0112206201A715922B2
:101FF0005A7100229A713922DA7130221A72E0E79E
:10200000226892F89A20E6E7084600F0BDF8E8E773
:10201000226892F89B10197192F89A2003205A7145
:10202000CFE722680920B2F800111971090A597125
:10203000B2F8A2109971090AD971B2F8FC1019729C
:10204000090A5972B2F8A0209A72120ADA72B8E735
:10205000226892F82E11197192F82F21DEE7114BA8
:102060001B6813B940F249517BE723202246984769
:102070000420A6E70B4B1B68002BF3D0224624203C
:10208000984705209DE7074B1B68002BEAD02246A6
:102090002520F5E740F2445163E7012091E703B0C2
:1020A00030BD00BFF01500203F289ABF024B53F807
:1020B00020000020704700BFF01300203F289ABF87
:1020C000024B53F820000020704700BFF01400209E
:1020D000F7B5056804464FF6FF77D5F8BC600DF1FB
:1020E00002010DF101023046ADF8027006F020FE4B
:1020F00001A9304606F03EFE48B1019806F070FE98
:102100002168A83100220272FFF7B4FEE7E7044914
:1021100005F1280003B0BDE8F04007F055BB00BF53
:10212000579A0000024690F8D631BBB990F8D731E3
:1021300003F0FF010BB100207047094B187800280D
:10214000F9D01970D9680433C2F8941003CBC2F8DF
:10215000CE01C2F8D211FF2382F8D6310120704798
:102160001C100020006890F871314BB9B0F8AA300B
:1021700000F26910034943811A23437207F021BB1F
:10218000704700BFE39A000010B50446FFF772FAEB
:10219000044A054B024009200B40C4F80120C4F852
:1021A000053010BD2FC904F76FDB008037B50C4632
:1021B0000568FFF75FFA0A4B0A4A03400A4095F8A0
:1021C000621000930B4001928DF800306B4603CBF8
:1021D000C4F801000920C4F8051003B030BD00BFE9
:1021E0002FC904F76FDB008038B5DB04154604D532
:1021F000037D13B10023436338BD446B0134446352
:1022000007F096FC836B9C42F6D30023034943639B
:102210002846BDE8384007F0DDBA00BF0D9B00003E
:10222000024B1B6803B11847704700BFF41500202C
:10223000F0B51F4D00242B7814709BB1013B6D68E5
:10224000DBB21E1B012E0FDC05EBC40655F8347003
:1022500076688E4208BF874227D0B84271EB0606E7
:1022600012D214700020F0BD1E197710C6F3470675
:1022700055F837C005EBC70E8445DEF804708F4172
:102280002CBF33463446DCE705EBC30455F8335026
:1022900064688C4208BF854206D0A84271EB0404F2
:1022A00028BF01331370DDE71C4601201470DAE704
:1022B0003C10002010F0070208B503D0632148202D
:1022C000FEF772F918B1034B197258601A70C80002
:1022D00008BD00BF3C100020014B00221A7070475F
:1022E0003C100020FF23084A0B700D234B70822303
:1022F0008B701368C1F803305368C1F807309368D6
:10230000C1F80B30704700BF521000200B4B5A7DB4
:1023100092B14A0610D5B0F8AA2009491A80D0F81F
:1023200050225A60D0F854229A60C28803F10C00FF
:102330005A800222FFF7B0BD704700BF5210002044
:10234000E5220000094B53F8203003F5224370B515
:10235000B13316464FF47A720C46B3FBF2F53444AF
:1023600002F06CFD2C44204470BD00BF38B1010068
:102370002DE9F04F8BB0044698460F46039290F833
:10238000159106F0CCFF824694F81F01FFF7E4FB9D
:10239000824407F001FCE37B00F148061FFA8AFA49
:1023A0000293039B002B4AD1637B032B47D1029BF3
:1023B0000C2B32D1B4F86C32BB422ED1D4F8F031B0
:1023C0002046B4F8C421C4F8E031D4F8C430C4F8CD
:1023D000E431B4F862321344C4F8E83101F0B0FEDD
:1023E000D4F8742241F64B5194F81D31C4F8C4203E
:1023F0008A428CBF002303F00103D4F87012D4F892
:102400007822C4F8D41084F81E310223B4F86E1276
:10241000C4F8CC20A4F8D8106373E37BA17B282BED
:1024200001D028290BD1B4F86C32FB1A1A0406D457
:10243000A1F1280320465942594101F043FAB4F86A
:10244000605204F50C73B4F806E07D1B94F815B1E6
:10245000A7EB0E0E04932DB20FFA8EFE002D0FDAAD
:102460007546D4E99223C4E996230122637B032BAA
:1024700000F26481DFE813F0060006015A0029012A
:102480004246F3E70121002006F0E8FF8146D4F838
:10249000D4005146484403F0D3FB5146C4F8EC0144
:1024A000D4F8C40003F0CCFB07A9C4F8F00108A8D5
:1024B00002F034FC079B0093DDE90823D4E9960180
:1024C00008F0C4F8834604F1A80007F07DFBD4F8B7
:1024D000D420D4F8643294F81501D51802F0B6FC73
:1024E000D4F8EC1100F52240203D4FF47A73B1305E
:1024F00032466D1A3031AD1BB0FBF3F04D44B4F8E9
:10250000D830A5EB0B0503EB41012D1A94F815010A
:10251000FFF718FFD4F86432C4F8F401EB1AB92BB2
:102520005DD840F2C7413020FEF73EF8D4F8D430F1
:102530005146D4F8E401184403F082FB5146C4F834
:10254000EC01D4F8C40003F07BFBC4F8F00104F103
:10255000A80007F039FBD4F8D430D4F8E4511D4476
:10256000B4F8C431002B40F08980B8F1000F00F0BE
:10257000858094F8150102F069FCD4F8EC11D4F8C8
:10258000503200F522406D1A94F81521B130203DEB
:102590001D44854B53F822204FF47A7302F2E73240
:1025A000D4E9929AB2FBF3F2A5EB0905B0FBF3F084
:1025B0001544AD1B2D1AD4F8E821D4F8E03194F875
:1025C000150102FB0313B4F8D8103246303301EB87
:1025D0004301FFF7B7FE0123C4F8F4016373D4F895
:1025E000C430D4F8F021723B9B1A9E1B0023864214
:1025F00084F83032D4E9963228BF064604F1DC0074
:102600005B19C4F8C06142F10002C4E9903207F0DE
:102610000CF904233044A4F8607284F83932C4F809
:102620003402D4E99023C4E99623B4F8B031DB1B1B
:102630001BB2002BD4BF00220122520084F83822A2
:10264000029A0C2A7DD0B8F1000F7DD1637B002B5C
:1026500000F09680D4F8C41004F50C70D4F8F03172
:10266000C91A06F0BEFE80B2002800F08980149BD3
:1026700003B1188001200BB0BDE8F08FD4F8EC1145
:102680006D1A98E7D4F8F001D4F8C430B4F8C4C196
:102690001B1AD4F8E811F444D4F8E0215D43D4F8CF
:1026A000EC31ACEB010C30330CF1FF3C02FB01339D
:1026B000B4F8D810324600FB0C3301EB4301584606
:1026C000FFF740FEC4F8F40189E7D4F8F0A1D4F88C
:1026D000C430B4F8C4C1A3EB0A035D4332B3BCF108
:1026E000000F23D1D4E99423D4E99201904271EBF5
:1026F000030302D340F20E5115E72B4B203A53F857
:1027000029304FF47A79D4E99201CDE9040103F23A
:10271000E73103F522430498B133121AB1FBF9F102
:10272000B3FBF9F30A44D21A921B15440CEB0E01C9
:1027300032460AFB01F130314900C0E740F2265130
:10274000F1E6B8F1000F1BD0B4F8D80110B3B4F81B
:10275000DA1194F8DC214D1CA4F8DA1101FB0222F5
:1027600090420DDD002B0BDD0023A4F8DA5184F834
:102770003832FFF7A3FB00F00700013084F8DC01DA
:1027800004F50C7104F5027004F002FA20B940F26D
:102790007651C8E60146DCE7039B83F0010384F829
:1027A0000032002067E700BF38B101002DE9F8438F
:1027B0000E46044618B9D3213020FDF7F5FE052951
:1027C00000F2A780DFE801F00376413DA52E07F077
:1027D000E1FFC4E94601204600F04AFED4F80C01AE
:1027E000A43807F02DFF204607F0CAFC054600BBC1
:1027F0000146204607F001FC00F1AE06D4F80C01BA
:10280000B04209D2301A0321192838BF192007F025
:1028100093FF60B107F016FFC4F80C61204607F083
:10282000C1FC45B12046BDE8F84307F0BCBC01251A
:10283000F2E70025F2E7D4E94623C4E94023BDE8E6
:10284000F883BDE8F84302F075BA07F0E1FB042312
:102850008146884684F8113107F0F0FE07220F46C2
:10286000A9FB023102FB0811D4E940525B1941EB8C
:102870000205D4F8E8203AB159EA080204D0984297
:1028800077EB050228BF012684F81061D4E94826B9
:10289000121A66EB070694F8301139B9012A76F15D
:1028A00000010BDA204600F0EBFD03E0012A76F18F
:1028B0000006F7DB002384F82831C0E7984277EB65
:1028C00005010FD259EA08080CD01B1A65EB070165
:1028D0009A4276EB010005DB012B71F10000A4BFE9
:1028E0001A460E460C49012304F1C000914284F8B7
:1028F00029314FF0000384F80831B341B8BF0A46CC
:1029000004F5847104F0BCF9002898D140F2B2615A
:1029100052E7EF2150E700BF0040420F2DE9F84396
:1029200004460E46154690F8283103F0FF07002BA9
:1029300040F0948000F1C00839467822404608F003
:1029400098FA22464649404607F096FFC4F8E860E8
:10295000FF2384F8283166B1FFF7C8FA00F00700BA
:1029600032464049013086F8DC0106F5027007F076
:1029700083FF40F202434FF00009A4F8103184F8BD
:10298000089103F0B3F900F14906204607F0F8FB7F
:102990000146B6B2C0B306F0C2FC00F128012846D9
:1029A00089B203F04DF92844AE3DC4F80C0107F09C
:1029B00045FE3018A4F81E9041F10001C4E946011B
:1029C000012084F8EC0007F085FC2D1AC4F8F050C3
:1029D0004FF0FF356FF000414046D4E94623C4E98B
:1029E0004851002504F58471C4E93E23C4E940231D
:1029F00084F8295142F2107204F042F938BB40F2D7
:102A0000B9113020FDF7D0FD2046DFF85C9007F0CB
:102A1000F4FAAE30C4F80C01B9F8000048B1E08B0C
:102A200038B1FFF763FAB9F80030B0FBF3F202FBFC
:102A30001300064407F002FE361841F10001C4E914
:102A40004661002DC4D0AD1941F10001C4E729460B
:102A5000204607F0AAFB3846BDE8F8830C27FAE7C2
:102A6000AD270000E39B000068100020F0B50023B4
:102A700085B0CDE9003301238DF806306846FEF7B6
:102A8000DFF870B10123104EB3700023CDE902339B
:102A900002A8FEF7D5F8044638B10023B37005B09C
:102AA000F0BD009807F061F9E8E7029D6B7B002B11
:102AB000EED005F50277384607F0E5FD384607F019
:102AC000EEFD6C73E4E700BF68100020044B0022A9
:102AD000DA709A7042F210721A80FFF7C7BF00BF17
:102AE0006810002008B501F053FE044B5A6882427A
:102AF0002ABF9878002080F0010008BD68100020EF
:102B0000F7B5044606297BD8DFE801F00425152334
:102B1000282D74003C4B9B7803F0FF025BB90092B8
:102B20000123B0F8B411FFF723FC30B140F2CE61BD
:102B30003020FDF739FD0423637301F0C9FF04F071
:102B400013F80023E288A4F86232A4F8FE2184F886
:102B5000013203B0F0BD03234373FAE707F0F7FC3B
:102B6000C4E99401F5E790F8150107F01DF8643009
:102B7000D4F8F0319528D4F8C450234F8CBF0020EE
:102B8000C0F19600C218954288BFED1AFB7894BF39
:102B900000252D1A23B9D4F8DC309D4228BF1D46EC
:102BA000D4F8C06104F1DC0006F03FFE06440220C8
:102BB00007F098FD0221AD1B25EAE575854228BF87
:102BC0000546284607F0B8FD10B12E4407F03AFD3F
:102BD0000123C922314604F1A80006F0CAFED4F848
:102BE000C0317860D4F8C400184403B0BDE8F040A8
:102BF00007F026BDA83003B0BDE8F04006F0E4BF02
:102C000040F29C7194E700BF68100020014B1880CF
:102C1000704700BF681000200346074A1068D3F8C9
:102C20004920C0F80320B3F84D20A0F8072093F8FE
:102C3000481006F02CBD00BF7010002070B504468F
:102C40000E461346807D6588324615F0040118BF94
:102C500004F15701FEF7FAFE4107054621D4C207E9
:102C60000BD50123A07D84F84830FEF753FF03689D
:102C7000C4F849308388A4F84D30AB0701D4012053
:102C800070BD094B01211868D4F8573084F85610EC
:102C9000C0F80930B4F85B30A0F80D3006F000FD44
:102CA000EDE70020ECE700BF7010002038B5C38CC2
:102CB00004460F4D0133C3F30E03C3842B7C2BB1A9
:102CC00002F004F801F0FEFA00232B7400232B71AC
:102CD00094F869302BB101212046BDE8384007F057
:102CE00086B8637C13B1E28C9A42F4D20021F3E7F8
:102CF0007010002010B5074C2379012B05D1237CDF
:102D00001BB101F0E3FF01F0DDFAA069BDE810405E
:102D1000FFF7CCBF7010002070B5254C2379012B34
:102D200004D040F682412D20FDF73EFC98B90125E4
:102D3000237C1BB101F0CAFF01F0C4FA002D36D08C
:102D4000A06907F02DF868B301F06EFEE369BDE8F5
:102D500070409B6818472168A26911F8095B02F16D
:102D6000490392F84820E80906F0FCFA0028DED072
:102D70000021206806F0B9FC0028D8D02379A0698A
:102D8000012B02D040F65C41CDE7237905F00F011D
:102D9000E26903F180435269013B52F823309847BE
:102DA0000546C5E7A069BDE87040FFF77FBF70BD6D
:102DB000701000200346074A906903B909B9FFF76C
:102DC00075BF1379D26903F180431269023B52F84F
:102DD000233018477010002003292DE9F0430546E1
:102DE00085B0174607D14388980723D4002420468E
:102DF00005B0BDE8F083428890F86830D107DBB2B7
:102E0000F4D5002BF2D14FF00108DFF8D49099F8F7
:102E10001060C6B106F0DBFA0828387016D002AA96
:102E20000DF10701FEF7E8FD38B940F6F7612D20F6
:102E3000FDF7BAFB4FF00208E7E702A99DF807008B
:102E400006F092FE06463B78082B08D1D9F8001010
:102E500011F8030BC0F3801006F086FE0646D9F881
:102E6000001005F1500395F84F2011F8030BC0F343
:102E7000801006F077FAD9F80010044611F8030B19
:102E8000C0F3801006F099FA8146FEF755FE40B176
:102E9000B9F1080F1BD04846FEF780FD80F0010312
:102EA000D8B23A78082A14D01CB9AC7DA21A544280
:102EB00054416A8853079AD4002897D176B9EC7C9C
:102EC000444518BF002C0CBF012400248FE70020CC
:102ED000E7E780F001022240D4B2EAE7344686E711
:102EE00070100020032937B5044604D0052957D0B7
:102EF000012003B030BD08230DF107028DF8073023
:102F0000FFF76AFF0028F3D0237C2A4D03B39DF816
:102F1000070094F8B630DBB92378082804F1B90229
:102F200084F8B7302DD004F1B801FEF765FD20B963
:102F30004FF477612D20FDF737FB94F8B83043F05C
:102F4000020384F8B8301C4904F1AE0006F039FCE5
:102F50002B68042220461A7006225A70FFF75CFE86
:102F6000616B94F83820286806F0B0FB03232868CA
:102F70002B7101F037FE0021286807F0F2FA0020DB
:102F8000B7E72868034613F8031BC1F3801184F8E0
:102F9000B810D0F80310C4F8B9109B889380D2E71A
:102FA000064B1B68002BEAD0984780F00100C0B2A6
:102FB0009FE700BF70100020FF9E0000F815002062
:102FC000F8B504460F4619B300F12005284607F06E
:102FD0005EF9A0B963881A072ED5284607F06CF968
:102FE0000646284607F053F9301AC0B207F072F9C6
:102FF000494A936803442846936007F027F9284616
:1030000007F029F901F07EFC2179252001F0E4FB8D
:10301000414E002394F85620306803704370638853
:10302000103B0D2B68D8DFE803F063675F0C674443
:1030300067676767676767442046BDE8F840FFF742
:1030400035BE06234370202303702046FFF7E4FDBE
:10305000638823F008039BB2152B05D094F8302029
:10306000E16A306806F023FB306801F0BBFD002107
:10307000306807F076FA022321790020337101F0DD
:103080004FFC054607B9F06063881B0704D507F0BD
:103090001EF90544C4F8F4506388103B0D2B36D854
:1030A000DFE803F038352F2F352F353535353535F9
:1030B000352F0C2321214370034603F8091B52B11D
:1030C000D4F857200121C0F80920B4F85B209A8079
:1030D00006F0E6FAB9E7226DC0F80920B4F85420EA
:1030E0009A8094F84F10F3E7062303704370ACE71F
:1030F000022303700623F9E740F259612D20FDF702
:1031000053FA21790120BDE8F84001F0EDBD40F609
:10311000F541F3E7F8BD00BF7010002038B54388D3
:103120000446102B04D10121BDE83840FFF748BF09
:103130000B4D2B7C23B101F09FF8402001F0BAFD2C
:10314000286801F04FFD608810F0040002D1217959
:1031500001F0CAFD002001F093FD01232B7138BD61
:1031600070100020024B01219869FFF729BF00BFB2
:103170007010002010B5124C237C1BB101F0A6FD8D
:1031800001F0A0F8A06906F00BFE38B12379012BFD
:1031900009D040F686312D20FDF706FAA069BDE87A
:1031A0001040FFF783BD2379E26903F18043A069F2
:1031B000D268013BBDE8104052F82330184700BFE9
:1031C00070100020074810B5037903F0FF0433B9ED
:1031D00014222146043007F04CFE204610BD0C247A
:1031E000FBE700BF7010002010B50023094C2371CD
:1031F000FEF73CFA2060FFF7E5FF20B14FF4427183
:103200002D20FDF7D1F9E36913B940F20B31F7E74F
:1032100010BD00BF70100020014B024ADA617047F8
:1032200070100020C8340000F8B5057D0446AF1EBC
:10323000FFB2002D3AD0012F2DD800F1500190F8A7
:103240004F0006F0BAF80828064624D0FEF7B2FB75
:1032500010BB023D18BF0125012F84F84850A67508
:103260008CBF002701276775FEF7C0FB054607F0F6
:10327000E5F90022144B84F85620E5FB0301C4E96C
:10328000100111462046FFF7D9FC70B940F2A34166
:103290002D20FDF789F90826022D09D104F14901F5
:1032A0000020FEF773FA60B90020F8BD0826F5E7A4
:1032B00004F149010120FEF769FA0028F4D0012544
:1032C000CAE70025C8E700BF40420F00F0B5444EF2
:1032D00085B00446327902F0FF0312B90278FF2A62
:1032E00004D140F6DD112D20FDF75EF9B36080F8C2
:1032F00069303C4B684604F1200500933A4B01933A
:103300003A4B0293F3695B68039301F063FC01F0AD
:103310008FFA01F0DBFC00F0D5FF354801F0E8FA48
:10332000344801F051FC284606F090FF284606F08C
:1033300092FF01F0E7FA2179252001F04DFA94F986
:10334000120001F0CFFA04F12C01A06A05F030FE62
:10335000074604F13401A06A05F051FE0546DFB1CD
:10336000237FCBB1B4F92650ED43ED0F637D13B944
:1033700063885B0709D56FF00043D4E910129A42C5
:1033800008BFB1F1FF3F0DD19DB930680330FEF7A2
:103390004BFB307405B0F0BD002DE7D0657F002DEC
:1033A000E0D1E3E707F04AF9D4E9102390429941CC
:1033B000EAD3012229462046FFF740FC50B1FEF730
:1033C00015FB054607F03AF90B4BE5FB0301C4E991
:1033D0001001DAE7002DD8D040F61C2183E700BFAA
:1033E0007010002075310000192D0000B52D00006F
:1033F000D6BE898E5555550040420F0073B5044620
:10340000FFF764FF00212046FFF7DAFD236E0BB1C2
:1034100001221A606388DB0724D50023124EA569B8
:10342000CDE90033FF2373746846FDF709FCC8B982
:10343000009CA542F8D005F1B40395F8B32004F13F
:10344000B40194F8B30005F08DFF0028ECD094F897
:10345000AC30B4F8B1207374D4F8AD30C6F8123083
:10346000024B9A8002B070BD7010002082100020C4
:10347000024B9861DB691B68184700BF7010002081
:1034800043881B0710B504460FD583693C220949C0
:103490006A304272B3F8AA304381FF2380F82730A4
:1034A0004FF6FF73038506F08CF9FF2384F869302B
:1034B00010BD00BF179F0000639F00001D3100007A
:1034C000699F0000E52E0000FD330000F52C000090
:1034D00065310000B8340000BC340000C434000082
:1034E0000138022808B503D9C4212F20FDF75CF864
:1034F00013290A4B05D811290CD8102907D0D2213D
:10350000F3E71529FBD103EB4003D88801E033F83A
:10351000100008BD03EB40039889FAE7B4B001003E
:10352000294A38B50346948810681C43402B948080
:1035300004D10421BDE83840FFF7E2BA802B01D165
:103540000521F7E703F00304032C04D140F6A4316E
:103550003120FDF729F8DD0706D50C689160247845
:10356000062C0FD00B2C17D09C0706D509680978BC
:103570000529117319D00B2921D09B0644BF0823BC
:10358000537338BDC47B1B2CEED100240025C0E949
:103590001C450124C474E7E7C47B112C01BF00243F
:1035A000C474012480F85240DEE7C17B1729E4D1BE
:1035B000002400250121C0E91E450175DDE7C17B1E
:1035C0001029DAD10021F8E7901000200C4A0346B8
:1035D000517B89B910683BB9B0F80411B0F8E82004
:1035E000914209D8FFF77EBA93881B0706D5007C65
:1035F000073818BF0120704700207047012070472E
:10360000901000202DE9F843614D06462C680028F3
:103610007ED1AB881A0725D594F89E30FE2B04D1B5
:1036200040F2FB513120FCF7BFFFFE2384F89E30AF
:10363000E37B1D2B05D184F85100284606F0DBF909
:10364000E673A37B232B06D1E37B233B072B94BF9D
:103650002A232423A373237C072B02BF0223AB73EB
:1036600084F89E30AB88DB0717D4AB885F0776D42D
:1036700099077DD5287B01222B680D2883F89F2090
:1036800073D011287DD007287DD0FEF717FD0346A3
:1036900000286BD140F2EE51C4E7D5F80080A9684C
:1036A00098F80F30D1F80090103B99F800700F2B6C
:1036B00009D8BB1EDBB2092B67D840F2333222FA9D
:1036C00003F3D80761D509793846FEF77FFA20B9A8
:1036D00039462F4806F0AEF939E0012F01D9162FEF
:1036E00021D198F80E0006F095F940B198F80E3007
:1036F000232B04D0242B07D12A2388F80E303846F8
:10370000FEF7D2FC03461BE0162F14BF022620262C
:103710006B7B1B0704D5E37B103B0F2B98BF082660
:103720003046BDE8F883112F15D005D8072F14D0E7
:103730000D2FE4D1174B05E0142FE0D1164B1B6879
:10374000002BC5D0AA68494611481279984700282D
:103750008BD00646DCE7114BF4E7114BF2E7227CF5
:10376000062A04BF0122AA7382E70E4B0848984735
:10377000AB88DA06CCD5E37B092BC9D10A23E373E6
:10378000C6E7094BF2E7094BF0E70826C0E700BFA0
:10379000901000204BA40000FC1500208FA4000016
:1037A0003538000075A30000C1A30000EBA30000A2
:1037B0002DE9F041A0F10E040B1E1646E4B208BF3D
:1037C0001F23172C0AD8012540F25121A5400D4294
:1037D00007D115F460051FD1082C07D00020BDE8E3
:1037E000F0810021BDE8F04106F078BD1468A17BAE
:1037F000242906D119463046FDF764FF84F82C5180
:1038000005E02A29EAD1E37B233B072BF3D80023E9
:10381000A37384F84A30E1E7054A1468002CDDD030
:103820001A46014623463046BDE8F041184700BF1E
:103830000016002070B54D780446A5F10E03DBB2EA
:10384000152B0CD8012140F2512201FA03F6164241
:1038500007D10268152B927B2AD0082B07D00020B5
:1038600070BD02462846BDE8704006F037BD242AE8
:1038700001D02A2AF3D1204606F0ABF82368DA7B80
:10388000252AECD093F863201A21204622F0010269
:1038900083F86320226892F8633023F0080382F8EB
:1038A0006330FDF70FFF2368002283F82C21D6E751
:1038B0002C2AD4D1024B1B68002BD0D09847CEE7DE
:1038C000041600202DE9F04190F86E7204460D4672
:1038D00090F86F627FBB90F8141176BB94F81531A5
:1038E00084F8141184F81531FF2384F81631154B30
:1038F00004F1A8081B680BB14046984794F82C3196
:10390000012B01D03E4303D0237B43F001032373FB
:10391000404605F09CFF18B1237B43F0020323735C
:1039200006212046FFF7ECF8002384F82C3135B14E
:10393000A373BDE8F0813946CFE73346D0E7E5739E
:10394000F7E700BF0816002073B5484D002604466F
:103950002860AE806E73AE73FF2380F84C30B0F8F1
:10396000B231002B7CD090F89E30FE2B78D190F8AD
:103970002031002B74D0037C063B012B70D990F8CA
:1039800021310221A0F84460012280F8A03006F025
:10399000FEFC0221284684F8BA61FEF7D9FAB4F891
:1039A000B6112046B4F8DA300139B4F8B82189B23A
:1039B000B1FBF3F31344A4F8B831B4F840300B442E
:1039C000A4F8403006F030FD10B1636B0B44636324
:1039D000B4F8B2310026012B9CBF0133A4F8B231F8
:1039E00009B184F8BE61E37B84F8BA61093B012B1D
:1039F0000FD8E388B4F86C229B1A190409D404F296
:103A00006E2104F1160005F09FFDE673FF2384F894
:103A10004B30B4F8B62104F1A801204605F0DBFDD7
:103A2000E37B134A103B13490F2B8CBF0023012368
:103A30000093114B2868FDF7A9FA2C68237BDA075D
:103A400003D500210948FDF73DFE237B9B0703D5E5
:103A500004F23F10FEF72CFA0023237302B070BD6E
:103A600094F89E10FE299AD0004896E79010002006
:103A7000CD350000213500007D3A00002DE9F047EA
:103A8000B24F0E468046B9883C688D05204655BF2A
:103A9000B4F8402000230132A4F840304CBF84F831
:103AA000BE31A4F8402006F0BFFC38B10B4604F547
:103AB0009B7204F1A8012046FEF796FBBB8803F435
:103AC000C06323B1A37C002B45D0032B49D0A27C3B
:103AD000BB88012A03D1180544BF0222A274B8F1A1
:103AE000000F40F08F80590657BFB4F8D8214246E6
:103AF000013292B2A4F8D82103F00A020A2A0CD1AA
:103B00003A7B022A09D123F008033046BB80FFF735
:103B100079FD30430823C6B2BB803046FFF772FD03
:103B20003D68304395F89E30C6B2FE2B3BD1D6BBE4
:103B30002B7C063B012B36D995F82031ABB195F89B
:103B4000213101220221A5F8446085F8A0302846E1
:103B500006F01DFC27E00121A1742046FEF7D0FFEE
:103B6000B5E702230121A374F7E795F80FA0AAF1A6
:103B70000F0A5FFA8AFABAF1100F40F2E9802B6857
:103B8000DA0702D532460921E1E7980740F18D8036
:103B900032460C21284606F0FAFB95F8533043F0E4
:103BA000010385F85330B4F8B83194F8BB510133B0
:103BB000A4F8B831002D00F0FB81FDF7A3FA10B195
:103BC0000023A4F8B831A17C012940F22382237C90
:103BD000072B40F00582B4F84030022B40F21A82E5
:103BE000B4F842500135ADB2E3882B44A4F8B031AB
:103BF00094F8BC31002B00F011820123E2881344B9
:103C0000A4F8B431BB883D685B0657BFB5F8C43132
:103C10000023B5F8B6219B1858BF9BB2A5F8C43154
:103C200095F820311BB92B7C063B012B06D8B5F843
:103C30004430B5F8B6211344A5F8443095F84A103D
:103C400031B1B5F84630B5F8B6211344A5F8463081
:103C500095F95020002AC1BFB5F84E30B5F8B6012D
:103C60001B18A5F84E3095F8313063B9B8F1000F44
:103C700040F05E82BB7B022B40F0168295F8A030AC
:103C8000062B18BF162395F8302022B92F4885F847
:103C90003130FEF71DFA284606F006FC002384F8B2
:103CA0004C30BDE8F047FDF74DBD590702D532460F
:103CB00013214CE71A0706D595F89830324685F857
:103CC000A030072143E713F0300F3AD095F82331A5
:103CD000002B5BD195F82231D3B1EB7B05F1A80025
:103CE00005F5917105F26E22282B28D0AB7BA3F14C
:103CF000280CDCF1000343EB0C0305F09AFD2B6864
:103D000023F0200343F010032B60002385F82231B9
:103D10002B68DA063AD505F1A80005F098FD18B130
:103D200005F23F10FEF7C4F8B5F8FE300022152169
:103D3000A5F8A030B5F80231A5F8A23007E70123B5
:103D4000DBE75B0622D50022242100E7901000204B
:103D5000D7F8009099F80F30172B2DD011D8102BD1
:103D60001DD0152B1FD0AB7B002B63D1EB7B0F3B02
:103D7000102B67D995F83E30002B63D00122122119
:103D8000E5E61F2BEFD1324606210AE03868C37BF7
:103D9000252B3FD0342BE6D100221121D8E6324624
:103DA0000B214846D4E64846FEF7BCF900283FF40C
:103DB000FAAE00220421F4E799F86832012B07D10A
:103DC00032460521484606F0E2FA89F86862EAE6DA
:103DD00099F86832022BD9B27FF4E5AE99F85230E7
:103DE00053B10623324689F8A030484606F0CFFA90
:103DF000002389F86832EAE73B6840F20632A3F80C
:103E00009A20324699F8623013F0040F0CBF0D214E
:103E10001121EAE790F82C31022B02D10022172160
:103E200096E690F82C31012B9DD190F82D31002B86
:103E3000F4D098E7082B05D195F89930012285F840
:103E4000A0303EE7BAF1100F7FF6ADAE3D6895F8B1
:103E50000E90B9F1000F7FF4A6AE95F833313BB167
:103E600001220E21284606F092FA85F83391AEE73A
:103E700095F8323183B195F8539019F0030A0BD1BC
:103E800049F0010901220C21284606F080FA85F844
:103E9000539085F832A19AE795F822313BB395F813
:103EA000233123BBEB7B05F1A80005F5917105F2E9
:103EB0006E22282B19D0AB7BA3F1280CDCF1000378
:103EC00043EB0C0305F0B5FC002385F822310122F9
:103ED0001421284606F05BFAB5F8FE30A5F8A030AC
:103EE000B5F80231A5F8A2305DE60123EAE795F8BE
:103EF0002C31012B3FD195F82D31002B3BD1EA7BA2
:103F0000A2F12303072B36D995F81401012806D016
:103F1000022804D04FF43F710620FCF745FB95F8CA
:103F20001511012901D00229F4D1022895F82E316A
:103F30000BD0012B14BF0023012343B9093A042AF3
:103F40007FF631AE0122162101E6022BF2E70229AB
:103F500095F82F310DD0012B14BF00230123002B26
:103F6000ECD000217548FDF7ADFB002385F82C311E
:103F700019E6022BF0E795F835314BB195F82D3164
:103F800033B9EB7B233B072B02D901222321DEE54A
:103F900095F83431012B05D1002385F83431012205
:103FA0002521D4E595F83431022B7FF4FCADF3E7FD
:103FB000FDF7A2F808B1A4F8B851FDF7ABF8002856
:103FC0003FF401AE94F8BE310133DBB2022B84F82A
:103FD000BE3182BF0023A4F8B83184F8BE31F2E5C7
:103FE00094F83E3013B1A37B0E2B13D1B4F842509A
:103FF0002046B4F84030ED1A033D06F015FA58B1EA
:10400000A36B626B033B9B1A9D42A8BF1D46012D0B
:104010003FF7E9AD0125E7E52B46F5E7012D7FF6F2
:10402000ECADE37B13B10A2B7FF4E7ADA37B002B50
:104030007FF4E3AD237C002B7FF4DFAD02297FF416
:10404000DCAD94F8BE31002B7FF4D7ADD4F8BC00C2
:10405000B4F8DA9004F0BDFE00283FF4CEAD94F839
:104060009E30FE2B7FF4C9ADB4F8B231012B7FF640
:10407000C4ADB4F8B821B4F8CC309A42BFF4BDADA9
:10408000013D9B1AADB29BB2B5FBF9F59D4228BF2D
:104090001D4605FB09F3003D03F1010318BF01258F
:1040A0009BB284F8BA51A9E5012B08D16B7C002B97
:1040B0007FF4E9AD00212846FEF722FDEEE55EB172
:1040C000F00633D4310733D4B20633D4B30733D137
:1040D0004FF43161312020E739B1B5F84610B5F819
:1040E0004830994201D32223CDE5002A05DDB5F8F9
:1040F0004E20B5F848309A42F5D2B5F84420B5F8CC
:1041000042309A4209D2AA7CB5F8403052B1B5F893
:1041100042209A42CED80823B5E595F82031002BED
:10412000E1D1F0E7052BC5D93E23ACE51E23AAE576
:104130003D23A8E52323A6E52A23A4E5901000202B
:10414000D0F87432D0F8C420934213B504460190DD
:1041500005D1D0F87812D0F8CC20914216D0B4F81E
:10416000AA2004F27D101049A4F8872140F2E2420F
:10417000B3FBF2F3A4F88931B4F87832A4F88B31A8
:10418000B4F87A32A4F88D3105F024FBB4F87A2221
:1041900001A8D4F87412FDF7EDFC0023E3730323A8
:1041A000A37402B010BD00BFC39A0000074B93F97F
:1041B00000301844142804DC10F17F0F03DB40B2F8
:1041C0007047142070476FF07E007047A1100020E8
:1041D000024B00221A705A70704700BFA1100020D5
:1041E000064BD3F8000138B1D3F8040120B1D3F85D
:1041F0000801B0FA80F04009704700BF00A00450E9
:10420000034B00221A705A7010229A70704700BF38
:10421000A4100020F8B50646022014460D4600F012
:10422000CDF8114B114A01275C60191D9A6002F10B
:10423000807203342D011F70DC601D83C3E90426E6
:104240000022243303F80A2C0D2203F8092C084A13
:10425000C2F83015074903C983E80300C2F808759E
:10426000C2F83835F8BD00BFA41000200300000BD1
:1042700000A00450C8B0010008B5022000F09EF86C
:104280000D4B01221A7000220C4BC3F80021C3F819
:104290000421C3F808210A4AC3F8802003F56433D7
:1042A000C3F88C20A3F57C33C3F88C21A3F500530D
:1042B0000822C3F8042508BDA410002000A0045063
:1042C00003000080154A08B51378FBB10023144998
:1042D000C1F8803001F56431C1F88C30A1F57C3132
:1042E000C1F88C3108210F4BC3F80815FFF778FF90
:1042F00088B101235370938EFF2B03D9BC213B203F
:10430000FCF752F9DBB29370002313700020BDE874
:10431000084000F053B810235070F4E7A4100020B8
:1043200000A0045000200450094B1A7862B1094BD8
:10433000D3F8002152B1D3F8040140B1D3F80801F9
:10434000B0FA80F0400970475878704702207047F3
:10435000A410002000A00450064A08B513782BB121
:10436000FFF73EFF20B192F8340008BD9078FCE7DB
:104370001020FAE7A410002038B5084C0025D4F826
:104380000035032B04BF01236360C4F80055C4F853
:10439000005500F001FFC4F8805038BD00A0045063
:1043A000054B4FF48062C3F88820BFF34F8FBFF3F3
:1043B0006F8FFFF7E1BF00BF00E100E010B50446DA
:1043C000FFF7DAFF012C06D0022C09D03CB18C217A
:1043D0003D20FCF7E9F8074B0222C3F8002510BD89
:1043E000044B0322C3F8002502F10042C3F88020E9
:1043F000F5E700BF00A00450024BD3F8A00300F083
:104400000100704700C0FF00084BD3F8A423D3F885
:10441000A833511C9BB203D14FF6FF718B4203D0DE
:1044200002608380012070470020704700C0FF00B9
:104430000B4B30B5D3F89053D3F89443D3F898137B
:10444000D3F89C2305EA04030B401340013317BF44
:1044500005600020446081601CBFC260012030BD47
:1044600000C0FF000B4B30B5D3F88053D3F8844322
:10447000D3F88813D3F88C2305EA04030B401340C8
:10448000013317BF05600020446081601CBFC2601B
:10449000012030BD00C0FF00064B0022C3F80022FF
:1044A000C3F81822C3F82022C3F80C22C3F8142240
:1044B000704700BF00A0085070B5134D0346084672
:1044C0006E7F26B940F6C1013E20FCF76DF863B956
:1044D000012EAC69297F05D100F034FD20442B6901
:1044E000C01A70BD06F043F8F8E7012B09D1012E80
:1044F000AC69297F02D100F015FDEFE706F042F824
:10450000ECE70020EBE700BFE01000200B4B93F836
:10451000290088B193F828307BB1094BD3F80024E7
:1045200042F00102C3F80024D3F8200500F0F600A1
:10453000023818BF0120704701207047E0100020AA
:1045400000A0085008B50128084B1871084B06D088
:10455000022808D040F645513E20FCF725F80322FA
:10456000C3F8002508BD0422FAE700BFE0100020D0
:1045700000A0085008B570B9104B28311846D96012
:104580000F4900F08BFE0130012816D940F2C261BC
:104590003E20FCF709F801280CD1084B29311846B8
:1045A000D960074900F080FE0130012805D940F2AA
:1045B000CC61EDE74FF4DA61EAE708BD880000203E
:1045C000D0B0010008B50C4B5B78012B09D100F08D
:1045D00071FE013001280ED940F611113E20FBF783
:1045E000E3FF022B07D100F06BFE0130012802D956
:1045F00040F61711F2E708BDE01000200A4B40F426
:1046000009000A4A1B8940F04000B3F5166F36BF17
:10461000A3F63813A3F5166343F48073C2F8083782
:10462000C2F84005704700BFE010002000A008500D
:1046300073B50C460546134EFFF784FF204621460E
:10464000FFF7DCFF01AB96F90520284600F0C2FD1C
:104650009DF8050000F03AFE20B140F2E3513E2003
:10466000FBF7A2FF31469DF9040000F0F7FB064B73
:1046700040F20312C3F8442E40F25B62C3F8482EA6
:1046800002B070BDE010002000A008502DE9F041FC
:1046900006460C46174605F0DDFF0028FBD02F4DDF
:1046A0004EBB01236B7095F828301BB9A9793846A9
:1046B000FFF7BEFF2A4B4FF47A7253F8273003F509
:1046C000FA73B3FBF2F3274AE41A274BC3F800212D
:1046D00029690127234B214485F82870234DC5F80B
:1046E0004015C5F8C031FFF711FF044660BB002438
:1046F0002046BDE8F081012E21D102236B7095F890
:104700002830B3B995F806803846FFF71BFF4046BE
:10471000FFF774FF144BD3F8002442F01002C3F8E3
:10472000002440F20312C3F8442E40F25B62C3F847
:10473000482E0D4B293C0B4AC3F80421C8E740F62C
:1047400034013E20FBF730FFEF64D5F84C358B4247
:10475000CDDA3046FFF70EFFCAE700BFE0100020B9
:1047600044B101000B00008000A008500050085028
:1047700040220021014806F07CBB00BFE010002071
:10478000024B0344187D00F516607047D0B001005D
:10479000024B98691B69C01A704700BFE0100020E7
:1047A0000A4B1A7FD3E90430C01A094B03EB82038A
:1047B000DB6BC01A074B53F822304FF47A7203F2C6
:1047C000F313B3FBF2F3C01A704700BFE0100020F0
:1047D000D0B0010038B10100FF2808B504D940F27B
:1047E000CB213E20FBF7E0FE012904D0022919D09D
:1047F0004FF44F71F5E7002343F4801340F000704D
:104800000A4A43F4847340F44030C2F8203EC2F8B0
:10481000280ED2F8203503F0F703032B05D140F220
:104820005631DEE74FF08073E6E708BD00A0085080
:10483000F8B5234E4FF48067C6F89070BFF34F8FE2
:10484000BFF36F8F05F000FF04461E4D05F0A2FF79
:104850000121001B1C4C2861C4F8A410FFF71CFEAA
:104860004FF40023C4F8401EC4F80034174B187CE2
:1048700000F03EFD02F08AFF154B164AC4F83833AB
:10488000154BC3F8C820013AC3F8C42040F6FE72A5
:10489000124BC4F81433124BC3F804250023AB8326
:1048A0002B85AB614FF48073C6F89071C4F88834DF
:1048B0002B6C376103B19847BDE8F84000F0E2BCCB
:1048C00000E100E0E010002000A008508800002077
:1048D00003000080060000800050085001000080A6
:1048E00000200850014B5871704700BFE0100020B5
:1048F000020E034B0002C3F8342EC3F82C0E70478F
:1049000000A00850044B054A034490711B7D03F539
:1049100016631381704700BFD0B00100E010002083
:10492000F8B5334C06460F4694F8293023B940F2C7
:1049300006713E20FBF738FE01232E4A84F828300A
:10494000D2F8003443F00103C2F8003405F082FECF
:104950000028FBD02EBB0123A17938466370FFF7F6
:1049600067FE6378012B02D04FF4E961E1E7224A48
:10497000D36402F5A04213601F4B3046D3F84C5568
:104980002946FFF7F7FD2369ED1A76BB1B4B4FF461
:104990007A7253F8273003F5FA73B3FBF2F3581920
:1049A000F8BD012EE8D10223A57938466370FFF7E0
:1049B000C9FD2846FFF722FE0E4BD3F8002442F033
:1049C0001002C3F8002440F20312C3F8442E40F250
:1049D0005B62C3F8482E6278022A02D040F251711D
:1049E000A7E7054AD6645E60C6E705F12900D7E768
:1049F000E010002000A008500050085044B1010011
:104A000008B5FFF743FE58B9064B0122C3F840052D
:104A100003F5A04302201A61BDE80840FDF718BA6B
:104A200008BD00BF0050085037B5254B4FF48061DA
:104A3000244A4FF0FF30D3F88844C3F89004C2F8FA
:104A400090114FF40022204904F48074C3F800242C
:104A500000221E4D2A85C1F84025C3F80821C3F85D
:104A60000021C3F80421D3F82015C9B2D1B18DF8C3
:104A70000700C3F8202201221A619DF8072012B115
:104A8000D3F820223AB19DF807305BB940F6FF0118
:104A90003E20FBF789FD9DF80720013AD2B28DF840
:104AA0000720EAE7FFF78EFD0022054BC3F820221E
:104AB0002A801CB14FF48072C3F8882403B030BD43
:104AC00000A0085000E100E000500850E010002075
:104AD00070B50024254D264EC5F84845C5F8444517
:104AE000C5F84045C5F84C45FFF79EFF00F0D0FBE8
:104AF000C5F8C441C6F80841C6F80041C6F80441EB
:104B0000C5F8C840C5F8C440C6F80441C6F800411D
:104B100002F054FE174B40F6FE72C6F83843C6F852
:104B20001443C5F8C041C3F808254FF48062124B06
:104B3000DC70C3E90544114BC5F84845C5F8444548
:104B4000C5F84045C5F84C45C5F84841C5F844414D
:104B5000C5F84041C5F84C41C3F89020BFF34F8FD2
:104B6000BFF36F8FC3F8902170BD00BF0050085095
:104B700000A0085000200850E010002000E100E0F4
:104B800070B5104D06462C781CB96C70EC702C85F5
:104B900070BD18B1BDE87040FFF746BF013CAA7870
:104BA0004FF0960118BF01242046FFF785FCAA7834
:104BB00001462E80204685F82860BDE87040FFF74A
:104BC0001FBF00BFE0100020014BC3F84C0E704720
:104BD00000A0085010B50FC8014C84E80F0010BDAC
:104BE000241100200A490B4B10B50124C1F8D00E46
:104BF000586283F82940FFF789FC40B9064BC3F897
:104C0000400503200C61BDE81040FDF721B910BD3F
:104C100000A00850E010002000500850144A13690A
:104C200018449369834210B5124C09D30220FDF752
:104C30000FF900230122C4F840350F4B1A6110BD53
:104C40000123D3706364D4F844250532824206D32D
:104C5000094AD2F80C120029F1D11361EFE70023C1
:104C6000C4F84431054BC4F84405C4F8C431E6E740
:104C7000E01000200050085000A0085009000080FB
:104C800010B50B4C0346607F217F012822794FF03D
:104C9000960009D100F064F9A36922699B1ABDE866
:104CA00010401844FFF7BABF00F074F9F4E700BFF2
:104CB000E0100020044BC3F8940ED3F8002442F017
:104CC0004002C3F80024704700A00850054BD3F8F9
:104CD000002422F04002C3F800240022C3F8942EDE
:104CE000704700BF00A008500028034B14BF0222E9
:104CF000012299701A707047E0100020054B0022C5
:104D0000C3F84025044AD2F82035DBB20BB10123A9
:104D1000136170470050085000A00850044B30B594
:104D2000D3E90C459B6BC0E900450B6030BD00BF6B
:104D3000E01000202DE9F0473D4C4FF001083D4EBA
:104D400005F07CFC0025C4E90C01C6F84C80D6F8BF
:104D50004C35A363FFF736FC374BC3F80851C3F853
:104D60000051C3F80451C3F80451C3F80051D3F8FB
:104D7000002422F01D02C3F80024D6F8482584F848
:104D80002950A261D6F84425626162786277D3F82F
:104D90001892D3F82002FFF77FFB6778022F2BD100
:104DA000E3784BB1D6F8443133B14046FFF7E8FE23
:104DB000636CBDE8F0471847B9F1000F16D02379AE
:104DC00000202377FFF7DCFE1B4B0021D3F80C2ECD
:104DD000D2074CBFD3F81C0E0120A36C48BF00F0D3
:104DE000010080F00100BDE8F0471847E8B101205C
:104DF000FFF7C6FE236DDCE7012F13D1237923775C
:104E0000B9F1000F06D02846FFF7BAFEE36C394629
:104E10002846E8E748B13846FFF7B2FEE36C49465A
:104E20004846E0E708B14046E2E7BDE8F08700BF4A
:104E3000E01000200050085000A00850024B03EB87
:104E40008003D86B704700BFD0B00100024B03EB6A
:104E50008003986C704700BFD0B001002E3008B5B9
:104E6000362854D8DFE800F05053535353534D5372
:104E7000535353535353535353534B53535353530A
:104E8000585358534953475345534353413F3D3B70
:104E900039373533312F2D2B29272523215A1C0053
:104EA0003F231F4AC2F8103708BD3323F9E72D23EB
:104EB000F7E72823F5E72323F3E71F23F1E71B2375
:104EC000EFE71823EDE71523EBE71323E9E71123B9
:104ED000E7E70F23E5E70D23E3E70B23E1E70A23E9
:104EE000DFE70923DDE70823DBE70723D9E706230C
:104EF000D7E70523D5E70423D3E70323D1E701232D
:104F0000CFE74FF49873CCE74FF48873C9E74FF4B9
:104F10008E713F20FBF748FB0223C2E73923C0E72D
:104F200000A008504FF47A73054A584332F9112013
:104F300000F2E7301044B0FBF3F00238704700BFD6
:104F400030B101004FF47A73044A00FB033032F9A8
:104F500011201044B0FBF3F0704700BF30B10100E6
:104F600038B51D460A4B33F9114003EB8203053572
:104F70009B681C444FF47A7304F6B73403FB004477
:104F80001046B4FBF3F42544FFF758FF284438BD1E
:104F900030B1010070B5064608461546FFF756FFCA
:104FA000094B03EB85039C684FF47A7304F6B7341E
:104FB00003FB0644241A2846B4FBF3F4FFF73EFF34
:104FC0000530204470BD00BF30B10100024B00220B
:104FD0001A705A709A707047341100202DE9F84306
:104FE000064601200F4615469846DDF82490FFF747
:104FF000E5F99DF8342006F00303264C43EA0263EA
:10500000254AC4F804350023C4F88030C2F884303F
:10501000A2F57C32C2F884310222204BC3F8082565
:10502000BDF828301E4A9380FB6893FA83FCBB6866
:1050300018BA7B6819BA3B68C4F810C51BBAC4F823
:105040001405C4F81815290AC4F81C352D069DF856
:10505000203041EA0861D9F804702DBA003B21F0F4
:105060000041D9F800003FBA18BF0123022E00BA50
:10507000C4F8207541EAC3714FF00103C4F8240558
:1050800009BAC4F82815C4F82C55537008BF13701A
:10509000BDE8F88300A00450003008500020045000
:1050A00034110020334B5A782DE9F04105460E4665
:1050B00022B94FF4BD716C20FBF776FA2E4A03F14A
:1050C000380C03F1480403F10807DFF8B080DFF87B
:1050D000B0E0C3F844801E65C3F854E092E80300D2
:1050E000C3E9085E8CE80300711C1964D2E9080169
:1050F00084E80300F11C0024996522495C6683F86A
:105100002E40C3E91714D2E9040187E80300691CA3
:10511000C3E90418D2E90601EA1C03F118089A62EF
:105120009A889A850E2288E8030083F82F200121AF
:10513000C3E90C44B278AA70134AC2F830C5C2F869
:10514000387599701B780BB9A921B4E70F4BC2F8D9
:105150000441C2F80841C2F880300D4AC2F88430D8
:10516000A2F57C32C2F8843102220A4BC3F804252E
:10517000BDE8F0813411002058B101000100000C9D
:105180000100000DE803000E00A0045001000080A3
:1051900000300850002004500C4B1A788AB10022CD
:1051A0000B490220C1F8802001F56431C1F8842048
:1051B000A1F57C31C1F88421A1F50051C1F80805A1
:1051C0001A7000225A709A70704700BF3411002084
:1051D00000A004502DE9F04F264C85B005469846B6
:1051E0000E46174600F0C2F823788146AB4211D133
:1051F0006378B3420ED194F90230BB420AD1E3780E
:10520000834207D1A388A8F8003094F9060005B0BE
:10521000BDE8F08F012D06D0022D10D040F289415B
:105220000620FBF7C1F900200DF10F033A46314685
:1052300000F0A2F8824620B14621A920F1E7012022
:10524000F2E730469DF90FB0FFF79AFAA91E034620
:10525000CDF800A04A4258464A41414600F03CF889
:10526000B8F80030A071A38025706670A77084F82C
:105270000390CAE79E000020014B1B681B6818477B
:10528000B8000020014B1B685B681847B80000207D
:10529000014B1B689B681847B8000020014B1B6836
:1052A0001B691847B8000020014B1B685B69184751
:1052B000B8000020014B1B689B691847B80000200C
:1052C000014B1B68DB691847B8000020014B1B68C5
:1052D0009B6A1847B800002030B4044C9DF8085071
:1052E00024680295E468A44630BC6047B8000020FA
:1052F00000220D49134610B540FA02F4E40744BFFA
:10530000CA545C1C02F1010248BFE3B2042AF3D183
:10531000054AFF24D118032B01D9107110BD0133A8
:1053200001F8014BDBB2F6E718160020C5A5000016
:10533000CBA50000CDA50000F3A50000D1A500007D
:10534000FDA50000D7A5000007A60000DDA5000010
:1053500013A60000E9A50000EDA50000DFA50000F0
:10536000E5A5000003A600000DA60000014B187D76
:10537000704700BFA8110020042810B511D883B1D0
:1053800004280CBF10242824A1420AD2064C54F849
:10539000200018B141568A42A8BF0A4600201A7060
:1053A00010BD6FF01500FBE7A81100200728034689
:1053B00011DC10F12D0F10DB094A101890F82E00A7
:1053C00002EBC00292F93C209A4207D0002918BF94
:1053D0000130C0B270471B2070470020704700BFEB
:1053E00080B10100072808B507DCFFF7DFFF044B99
:1053F00003EBC00393F93C0008BD0820FCE700BFA5
:1054000080B1010010F0FF0008B5074B05D001285E
:1054100007D04D21B52001F0E7FF01229A601A6004
:1054200008BD5862FCE700BF00E0105010F0FF001C
:1054300008B5124B05D001281AD07C21B52001F007
:10544000D3FF01225A60DA600D4AC3F800011070E0
:10545000D3F80824D2070AD4D3F8682412F0010242
:1054600002BFC3F81021C3F81821C3F8142108BDE6
:1054700000229862C3F81C21EAE700BF00E0105048
:10548000BD110020014B01221A707047BD11002090
:1054900008B50B4B28B101280BD0C221B52001F073
:1054A000A3FFD3F8103113B9064B187808BD0120BB
:1054B000FCE7D3F81C01003818BF0120F6E700BF55
:1054C00000E01050BD110020024BD3F8080400F09A
:1054D0000100704700E01050024BD3F8480400F080
:1054E0000100704700E01050024BD3F84004C0B2F6
:1054F000704700BF00E0105007490246D1F84C0445
:10550000D1F84C1410F4803005D0D0B201F0030370
:105510001B1A58425841704700E0105038B51A4BDA
:10552000D3F80C34DA0304D440F279116D2001F081
:105530005BFF164A0124164B106A536620F03F00A9
:1055400094645464136CDB03FCD4136A116C03F091
:105550003F03C1F30A01C1F5806181EAE1750B29BE
:10556000A5EBE17509DD3F2B04D001330343136242
:10557000172DE6DC0023936438BD0B31F8DA002BDD
:10558000F8D0013BF2E700BF00E0105000081250D5
:105590000100008038B50B4C23781BB10023237029
:1055A000FFF7BCFFEFF3108572B6637803F0FF00DE
:1055B0000BB9FFF73BFF05B962B6034B00225A66F1
:1055C00038BD00BFC01100200008125070B5174D43
:1055D000012204460E462B18DA7005F01CF8A0B91B
:1055E00034B1012C0FD040F225116D2001F0FCFEEA
:1055F00011232A19012105EB840451710C4AA6607C
:10560000C2F8043370BD8023F3E7002EFAD034B91A
:105610000220B047002305EB8405AB60F2E7012CC4
:1056200001D12046F5E74FF4A071DEE7C01100205C
:1056300000E01050044B0022191803EB80034A715C
:105640009A60CA70704700BFC0110020014B1882D9
:10565000704700BFC0110020014B588A704700BF3F
:10566000C0110020014B188A704700BFC0110020F4
:1056700010B5EFF3108472B6064B03445A7801322A
:10568000D2B25A705B78012B01D1FFF7BBFE04B98F
:1056900062B610BDC0110020034610B5EFF31084B0
:1056A00072B611490B445A7822B940F257216D2045
:1056B00001F09AFE5A78013AD2B25A705B7883B9F7
:1056C0000B7D43B1094BD3F80C34DB0306D44B7884
:1056D00003F0FF002BB9FFF7A9FE02E0487D02F0BE
:1056E00015F804B962B610BDC011002000E01050DA
:1056F00010B504F093FF0C4C04F08DFF60B1A37D56
:105700003BB90A4B01229A610423E37500232376F7
:1057100010BD04F086FFF9E703230122E375034B74
:10572000C3F80423F2E700BFC011002000E01050CE
:10573000014B01221A62704700E01050044B587E62
:1057400028B1044BD3F81001B0FA80F0400970473B
:10575000C011002000E0105038B50C4B5D7E5DB9E3
:1057600001245C7604F05AFF094B1022C3F8105153
:10577000C3F80423DC6138BDFFF7E0FF0028FAD04E
:1057800040F293216D2001F02FFE00BFC0110020D8
:1057900000E01050024BD87D003818BF0120704740
:1057A000C011002038B5174C237D23B940F20631D3
:1057B0006D2001F019FE01232370A37DC3B9A37EE0
:1057C000B3B1227E013B9A4212DA04F024FF05466F
:1057D00001F036FFA37E012B82BF237E01332376A7
:1057E00055B1E369C31A0133022B09D935B1E06120
:1057F000BDE83840FFF77CBF236AF3E72062F7E794
:1058000038BD00BFC011002037B5184CA37D63B967
:10581000606A00F00300FFF76FFE30B1EFF3108312
:1058200072B6E27D1AB103B962B603B030BD01228F
:10583000E27503B962B608230D4DC5F808334FF47D
:105840002073ADF80630BDF806309BB25A1E92B2F6
:10585000ADF80620002BF6D1C5F80C3184F82830BD
:10586000FFF746FF0823C5F80433DEE7C011002028
:1058700000E010502DE9F74F524C237D002B00F033
:105880009D800323ADF804304F4BD3F80051D3F87B
:105890001C21003D18BF012522B1012245F08005E1
:1058A0008DF80520D3F80881D3F8142112B9D3F864
:1058B000183173B1444B0026C3F81461C3F8186162
:1058C000C3F81061637E0BB104F0ABFE667604F0A2
:1058D000F9FF3D4BD3F810316BB3637E1BB104F07D
:1058E000A0FE00236376637913B102238DF80430A0
:1058F00045F01005354E0DF1040A334B4FF0000909
:10590000F71EC3F808531AF8010B03280AD03B7896
:1059100043B14FF0000B336887F800B013B19847DC
:10592000C6F800B009F10103043601374FF0010950
:10593000022BE8D101E0002DDCD1B8F1000F08D036
:10594000214B0022C3F808210422C3F80823FFF7E3
:105950005BFF94F82860EA071B4BF6B2D3F80C7192
:1059600008D5E27D032A05D1A27D82B90422E27521
:1059700001229A61A7B1144B0022C3F80C21E37DE8
:10598000042B09D040F269316D2001F02DFD04F0A7
:1059900048FE0223E375EDE70223E37504F041FEC0
:1059A00066B1002384F82830E37D022B01D1FFF794
:1059B0009FFE03B0BDE8F04F04F033BE03B0BDE876
:1059C000F08F00BFC011002000E01050C81100206F
:1059D00010B5054C606A00F00300FFF78DFD00284C
:1059E000F8D0002010BD00BFC0110020F8B505465A
:1059F00050B10278022A07D8437842B9013B1F2BE5
:105A000002D88378212B07D96FF015008CE0002B8A
:105A1000FAD18378002BF7D1654B4FF48042C3F85D
:105A2000A020BFF34F8FBFF36F8F624EC3F8A0214A
:105A3000FD23614CC6F808330023C6F81C31C6F8B4
:105A40000031C6F80831C6F80C316370A370AB881A
:105A50006382FFF739FD10B10123E3706370D6F85C
:105A60000C0440F2563310F4803023821BD0FFF731
:105A700009FD524801F020FE4E4E60236075002261
:105A8000C6F804332B78A978012B62766262A3757D
:105A9000A176227620D0022B17D0F3B140F21E510E
:105AA0006D2001F0A1FCC6F81001FFF7ABFC414AE4
:105AB000D2F81031002BFBD0FFF730FD0020FFF7AC
:105AC000B5FC3F4B00225A66D3E704F0A7FDD6F899
:105AD0000C34D903FBD502236362FFF7FDFC48B306
:105AE000FFF702FD636A03F00303984222D1AB790A
:105AF000DBB9FFF76DFFA37E63B12B7853B904F0D8
:105B00008AFD054601F09CFD6FF00043002D4CD04E
:105B1000C4E9070301234FF4804200202375244B7E
:105B2000E075C3F8A0211A62F8BD224B0422C3F825
:105B30000423E0E71F4B012200215A61C3F808113A
:105B400094F82410C3F840141A610422C3F8042303
:105B5000AA79002ACFD1D3F80423520702D440F205
:105B6000D1419DE7174A1769116907F0100741F005
:105B700010011161D3F808310BB905F0F0F80D4EA2
:105B8000D6F8083173B1FFF723FF27B90D4A13691F
:105B900023F0100313610423C6F808330023C6F86A
:105BA0000831A8E705F0D9F8EAE7C4E90730B1E71A
:105BB00000E100E000E01050C01100209555000009
:105BC0000008125000ED00E038B50E4B04460D46BB
:105BD0001A791AB183216F2001F006FC01280DD833
:105BE00003445A790AB1002038BD01225A71FFF7E7
:105BF0003FFD29462046FFF7E9FCF4E76FF015006A
:105C0000F2E700BFEC11002070B50C4D04462E7970
:105C10001EB19A216F2001F0E7FB01280BD8054443
:105C20006B790BB9002070BDFFF704FD20466E7143
:105C3000FFF732FDF6E76FF01500F4E7EC110020F6
:105C400010B501B3F0B14FF0FF33104A1C46E0FB32
:105C50000134944203D9DB216F2001F0C5FB1A0DFA
:105C6000C3F30F100A4B42EA04324FF22444B2FB52
:105C7000F4F100EB024003FB1100B0FBF4F040EA4A
:105C80000140013010BD0846FCE700BF3F420F0055
:105C9000000024F4014B9B68184700BFEC11002062
:105CA000014BDB68184700BFEC110020014B1B695A
